:060000000A128A11EE2F26
:100F1200C034F934A434B034993492348234F8347D
:100F22008034903488348334C634A13486348E3489
:100F32007E088A007F0882000A128A1199270A1203
:100F42008A118000840A04087D0603190034FF0A0E
:100F52000319FE0A9D2F313084002030F00010303A
:100F6200F10083130008F200040AF3007008840001
:100F720072088000040AF00073088400F10BB22F9B
:100F82008316031788018901831603138801FF3032
:100F9200831203138800B0013008203E84008313BB
:100FA200000888000B30F2002630F1005D30F000BE
:100FB200F00BD92FF10BD92FF20BD92FE02F0130E3
:100FC20083120313B00710303002031CE92FEA2FFB
:100FD200CD2FCC2F0A128A11002883134130FD0035
:100FE2000730FE008930FF00313084000A128A1176
:0E0FF2009D270A128A1183010A128A11AC2F60
:04400E00F22FFF3F4F
:00000001FF
